{
  "_format": "hh-sol-artifact-1",
  "contractName": "ChainConfess",
  "sourceName": "contracts/ChainConfess.sol",
  "abi": [
    {
      "anonymous": false,
      "inputs": [
        {
          "indexed": true,
          "internalType": "uint256",
          "name": "id",
          "type": "uint256"
        },
        {
          "indexed": true,
          "internalType": "address",
          "name": "user",
          "type": "address"
        }
      ],
      "name": "ConfessionLiked",
      "type": "event"
    },
    {
      "anonymous": false,
      "inputs": [
        {
          "indexed": true,
          "internalType": "uint256",
          "name": "id",
          "type": "uint256"
        },
        {
          "indexed": true,
          "internalType": "address",
          "name": "sender",
          "type": "address"
        },
        {
          "indexed": true,
          "internalType": "address",
          "name": "receiver",
          "type": "address"
        },
        {
          "indexed": false,
          "internalType": "bool",
          "name": "isPublic",
          "type": "bool"
        }
      ],
      "name": "ConfessionPosted",
      "type": "event"
    },
    {
      "anonymous": false,
      "inputs": [
        {
          "indexed": true,
          "internalType": "uint256",
          "name": "id",
          "type": "uint256"
        },
        {
          "indexed": true,
          "internalType": "address",
          "name": "receiver",
          "type": "address"
        }
      ],
      "name": "ConfessionUnlocked",
      "type": "event"
    },
    {
      "inputs": [],
      "name": "getAllPublicConfessions",
      "outputs": [
        {
          "internalType": "uint256[]",
          "name": "ids",
          "type": "uint256[]"
        }
      ],
      "stateMutability": "view",
      "type": "function"
    },
    {
      "inputs": [
        {
          "internalType": "uint256",
          "name": "confessionId",
          "type": "uint256"
        }
      ],
      "name": "getConfession",
      "outputs": [
        {
          "internalType": "uint256",
          "name": "id",
          "type": "uint256"
        },
        {
          "internalType": "address",
          "name": "sender",
          "type": "address"
        },
        {
          "internalType": "bytes",
          "name": "encryptedMessage",
          "type": "bytes"
        },
        {
          "internalType": "address",
          "name": "receiver",
          "type": "address"
        },
        {
          "internalType": "uint256",
          "name": "timestamp",
          "type": "uint256"
        },
        {
          "internalType": "euint32",
          "name": "likes",
          "type": "bytes32"
        },
        {
          "internalType": "ebool",
          "name": "isPublic",
          "type": "bytes32"
        },
        {
          "internalType": "euint32",
          "name": "unlocks",
          "type": "bytes32"
        }
      ],
      "stateMutability": "view",
      "type": "function"
    },
    {
      "inputs": [
        {
          "internalType": "address",
          "name": "user",
          "type": "address"
        }
      ],
      "name": "getMyConfessions",
      "outputs": [
        {
          "internalType": "uint256[]",
          "name": "ids",
          "type": "uint256[]"
        }
      ],
      "stateMutability": "view",
      "type": "function"
    },
    {
      "inputs": [
        {
          "internalType": "uint256",
          "name": "limit",
          "type": "uint256"
        }
      ],
      "name": "getTopConfessions",
      "outputs": [
        {
          "internalType": "uint256[]",
          "name": "ids",
          "type": "uint256[]"
        }
      ],
      "stateMutability": "view",
      "type": "function"
    },
    {
      "inputs": [
        {
          "internalType": "uint256",
          "name": "confessionId",
          "type": "uint256"
        }
      ],
      "name": "likeConfession",
      "outputs": [],
      "stateMutability": "nonpayable",
      "type": "function"
    },
    {
      "inputs": [
        {
          "internalType": "bytes",
          "name": "encryptedMessage",
          "type": "bytes"
        },
        {
          "internalType": "address",
          "name": "receiver",
          "type": "address"
        },
        {
          "internalType": "externalEbool",
          "name": "isPublicInput",
          "type": "bytes32"
        },
        {
          "internalType": "bytes",
          "name": "proof",
          "type": "bytes"
        }
      ],
      "name": "postConfession",
      "outputs": [],
      "stateMutability": "nonpayable",
      "type": "function"
    },
    {
      "inputs": [],
      "name": "protocolId",
      "outputs": [
        {
          "internalType": "uint256",
          "name": "",
          "type": "uint256"
        }
      ],
      "stateMutability": "pure",
      "type": "function"
    },
    {
      "inputs": [
        {
          "internalType": "uint256",
          "name": "confessionId",
          "type": "uint256"
        }
      ],
      "name": "unlockConfession",
      "outputs": [],
      "stateMutability": "nonpayable",
      "type": "function"
    }
  ],
  "bytecode": "0x608060405260018055348015610013575f5ffd5b5061018e6100b2604080516080810182525f808252602082018190529181018290526060810191909152506040805160808101825273687820221192c5b662b25367f70076a37bc79b6c815273848b0066793bcc60346da1f49049357399b8d595602082015273a02cda4ca3a71d7c46997716f4283aa851c2881291810191909152731364cbbf2cdf5032c47d8226a6f6fbd2afcdacac606082015290565b80517f9e7b61f58c47dc699ac88507c4f5bb9f121c03808c5676a8078fe583e464970080546001600160a01b03199081166001600160a01b039384161790915560208301517f9e7b61f58c47dc699ac88507c4f5bb9f121c03808c5676a8078fe583e46497018054831691841691909117905560408301517f9e7b61f58c47dc699ac88507c4f5bb9f121c03808c5676a8078fe583e46497028054831691841691909117905560608301517f9e7b61f58c47dc699ac88507c4f5bb9f121c03808c5676a8078fe583e46497038054909216921691909117905550565b6112e18061019b5f395ff3fe608060405234801561000f575f5ffd5b5060043610610085575f3560e01c8063997777301161005857806399777730146100f4578063bfbd3e9a14610109578063d2e6c2ac1461011c578063da1f12ab1461012f575f5ffd5b806345b8d00c146100895780637da47ec7146100b957806381e79a4c146100d957806388bf4675146100e1575b5f5ffd5b61009c610097366004610df6565b61013f565b6040516100b0989796959493929190610e3b565b60405180910390f35b6100cc6100c7366004610df6565b61027e565b6040516100b09190610e98565b6100cc610391565b6100cc6100ef366004610ef5565b6104c0565b610107610102366004610df6565b61062b565b005b610107610117366004610f53565b610792565b61010761012a366004610df6565b61091b565b60405161271181526020016100b0565b5f818152602081905260408120805482916060918391829182918291829190820361019d5760405162461bcd60e51b8152602060048201526009602482015268139bdd08199bdd5b9960ba1b60448201526064015b60405180910390fd5b80546001820154600383015460048401546005850154600686015460078701546002880180546001600160a01b03978816979196909116949392919086906101e490610fdd565b80601f016020809104026020016040519081016040528092919081815260200182805461021090610fdd565b801561025b5780601f106102325761010080835404028352916020019161025b565b820191905f5260205f20905b81548152906001019060200180831161023e57829003601f168201915b505050505095509850985098509850985098509850985050919395975091939597565b60605f306001600160a01b03166381e79a4c6040518163ffffffff1660e01b81526004015f60405180830381865afa1580156102bc573d5f5f3e3d5ffd5b505050506040513d5f823e601f3d908101601f191682016040526102e39190810190611029565b90508215806102f25750805183115b156102fc57805192505b8267ffffffffffffffff81111561031557610315611015565b60405190808252806020026020018201604052801561033e578160200160208202803683370190505b5091505f5b8381101561038a5781818151811061035d5761035d6110f1565b6020026020010151838281518110610377576103776110f1565b6020908102919091010152600101610343565b5050919050565b60605f600180546103a29190611119565b90505f60015b8281116103fd575f8181526020819052604090208054158015906103d7575060038101546001600160a01b0316155b156103ea57826103e68161112c565b9350505b50806103f58161112c565b9150506103a8565b508067ffffffffffffffff81111561041757610417611015565b604051908082528060200260200182016040528015610440578160200160208202803683370190505b5092505f60015b8381116104b9575f818152602081905260409020805415801590610476575060038101546001600160a01b0316155b156104a6578186846104878161112c565b955081518110610499576104996110f1565b6020026020010181815250505b50806104b18161112c565b915050610447565b5050505090565b60605f600180546104d19190611119565b90505f60015b828111610549575f818152602081905260409020805415801590610523575060018101546001600160a01b0387811691161480610523575060038101546001600160a01b038781169116145b1561053657826105328161112c565b9350505b50806105418161112c565b9150506104d7565b508067ffffffffffffffff81111561056357610563611015565b60405190808252806020026020018201604052801561058c578160200160208202803683370190505b5092505f60015b838111610622575f8181526020819052604090208054158015906105df575060018101546001600160a01b03888116911614806105df575060038101546001600160a01b038881169116145b1561060f578186846105f08161112c565b955081518110610602576106026110f1565b6020026020010181815250505b508061061a8161112c565b915050610593565b50505050919050565b5f81815260208190526040812080549091036106755760405162461bcd60e51b8152602060048201526009602482015268139bdd08199bdd5b9960ba1b6044820152606401610194565b60038101546001600160a01b03166106cf5760405162461bcd60e51b815260206004820152601160248201527f5075626c696320636f6e66657373696f6e0000000000000000000000000000006044820152606401610194565b60038101546001600160a01b0316331461072b5760405162461bcd60e51b815260206004820152600c60248201527f4e6f7420726563656976657200000000000000000000000000000000000000006044820152606401610194565b610742816007015461073d6001610a36565b610a4e565b6007820181905561075290610a83565b50610761816007015433610a92565b50604051339083907fc664959796fc3e8ee0695fd04714e16c07d4548906e4e03f0ff9bb5ef6f44226905f90a35050565b5f6107d28484848080601f0160208091040260200160405190810160405280939291908181526020018383808284375f92019190915250610aa492505050565b600180549192505f9190826107e68361112c565b909155505f81815260208190526040902081815560018101805473ffffffffffffffffffffffffffffffffffffffff1916331790559091506002810161082d898b83611190565b5060038101805473ffffffffffffffffffffffffffffffffffffffff19166001600160a01b0389161790554260048201556108675f610a36565b60058201556108755f610a36565b600782015560068101839055600581015461088f90610a83565b506001600160a01b038716156108cd576108ad816005015488610a92565b506108bc816005015433610a92565b506108cb816007015488610a92565b505b6040516001600160a01b0388168015825290339084907f765a76b83846dba22b1b0481bbc5481ae98854d601d3b4ff994c8075541312d59060200160405180910390a4505050505050505050565b5f81815260208190526040812080549091036109655760405162461bcd60e51b8152602060048201526009602482015268139bdd08199bdd5b9960ba1b6044820152606401610194565b5f82815260026020908152604080832033845290915290205460ff16156109ce5760405162461bcd60e51b815260206004820152600d60248201527f416c7265616479206c696b6564000000000000000000000000000000000000006044820152606401610194565b6109e0816005015461073d6001610a36565b60058201555f828152600260209081526040808320338085529252808320805460ff1916600117905551909184917f344f025a0be6e8671a276d50fb9f39aa89bd0d8ea7338decb0e1682309bf476b9190a35050565b5f610a488263ffffffff166004610ab0565b92915050565b5f82610a6057610a5d5f610a36565b92505b81610a7157610a6e5f610a36565b91505b610a7c83835f610b6d565b9392505050565b5f610a8e8230610c4d565b5090565b5f610a9d8383610c4d565b5090919050565b5f610a7c83835f610cd6565b7f9e7b61f58c47dc699ac88507c4f5bb9f121c03808c5676a8078fe583e464970154604051639cd07acb60e01b81525f917f9e7b61f58c47dc699ac88507c4f5bb9f121c03808c5676a8078fe583e4649700916001600160a01b0390911690639cd07acb90610b25908790879060040161126a565b6020604051808303815f875af1158015610b41573d5f5f3e3d5ffd5b505050506040513d601f19601f82011682018060405250810190610b65919061127e565b949350505050565b5f5f8215610b805750600160f81b610b83565b505f5b5f7f9e7b61f58c47dc699ac88507c4f5bb9f121c03808c5676a8078fe583e4649700600181015460405163022f65e760e31b815260048101899052602481018890527fff00000000000000000000000000000000000000000000000000000000000000851660448201529192506001600160a01b03169063117b2f38906064016020604051808303815f875af1158015610c1f573d5f5f3e3d5ffd5b505050506040513d601f19601f82011682018060405250810190610c43919061127e565b9695505050505050565b5f7f9e7b61f58c47dc699ac88507c4f5bb9f121c03808c5676a8078fe583e46497008054604051635ca4b5b160e11b8152600481018690526001600160a01b03858116602483015292935091169063b9496b62906044015f604051808303815f87803b158015610cbb575f5ffd5b505af1158015610ccd573d5f5f3e3d5ffd5b50505050505050565b7f9e7b61f58c47dc699ac88507c4f5bb9f121c03808c5676a8078fe583e46497015460405163196d0b9b60e01b81525f917f9e7b61f58c47dc699ac88507c4f5bb9f121c03808c5676a8078fe583e4649700916001600160a01b039091169063196d0b9b90610d4f908890339089908990600401611295565b6020604051808303815f875af1158015610d6b573d5f5f3e3d5ffd5b505050506040513d601f19601f82011682018060405250810190610d8f919061127e565b8154604051630f8e573b60e21b8152600481018390523360248201529193506001600160a01b031690633e395cec906044015f604051808303815f87803b158015610dd8575f5ffd5b505af1158015610dea573d5f5f3e3d5ffd5b50505050509392505050565b5f60208284031215610e06575f5ffd5b5035919050565b5f81518084528060208401602086015e5f602082860101526020601f19601f83011685010191505092915050565b8881526001600160a01b038816602082015261010060408201525f610e64610100830189610e0d565b6001600160a01b0397909716606083015250608081019490945260a084019290925260c083015260e0909101529392505050565b602080825282518282018190525f918401906040840190835b81811015610ecf578351835260209384019390920191600101610eb1565b509095945050505050565b80356001600160a01b0381168114610ef0575f5ffd5b919050565b5f60208284031215610f05575f5ffd5b610a7c82610eda565b5f5f83601f840112610f1e575f5ffd5b50813567ffffffffffffffff811115610f35575f5ffd5b602083019150836020828501011115610f4c575f5ffd5b9250929050565b5f5f5f5f5f5f60808789031215610f68575f5ffd5b863567ffffffffffffffff811115610f7e575f5ffd5b610f8a89828a01610f0e565b9097509550610f9d905060208801610eda565b935060408701359250606087013567ffffffffffffffff811115610fbf575f5ffd5b610fcb89828a01610f0e565b979a9699509497509295939492505050565b600181811c90821680610ff157607f821691505b60208210810361100f57634e487b7160e01b5f52602260045260245ffd5b50919050565b634e487b7160e01b5f52604160045260245ffd5b5f60208284031215611039575f5ffd5b815167ffffffffffffffff81111561104f575f5ffd5b8201601f8101841361105f575f5ffd5b805167ffffffffffffffff81111561107957611079611015565b8060051b604051601f19603f830116810181811067ffffffffffffffff821117156110a6576110a6611015565b6040529182526020818401810192908101878411156110c3575f5ffd5b6020850194505b838510156110e6578451808252602095860195909350016110ca565b509695505050505050565b634e487b7160e01b5f52603260045260245ffd5b634e487b7160e01b5f52601160045260245ffd5b81810381811115610a4857610a48611105565b5f6001820161113d5761113d611105565b5060010190565b601f82111561118b57805f5260205f20601f840160051c810160208510156111695750805b601f840160051c820191505b81811015611188575f8155600101611175565b50505b505050565b67ffffffffffffffff8311156111a8576111a8611015565b6111bc836111b68354610fdd565b83611144565b5f601f8411600181146111ed575f85156111d65750838201355b5f19600387901b1c1916600186901b178355611188565b5f83815260208120601f198716915b8281101561121c57868501358255602094850194600190920191016111fc565b5086821015611238575f1960f88860031b161c19848701351681555b505060018560011b0183555050505050565b6054811061126657634e487b7160e01b5f52602160045260245ffd5b9052565b82815260408101610a7c602083018461124a565b5f6020828403121561128e575f5ffd5b5051919050565b8481526001600160a01b0384166020820152608060408201525f6112bc6080830185610e0d565b90506112cb606083018461124a565b9594505050505056fea164736f6c634300081b000a",
  "linkReferences": {},
  "deployedLinkReferences": {}
}